:03000000020E7875
:0C0E7800787FE4F6D8FD758120020EBFE3
:10000E004E4F2E3100627265617468696E67206CA6
:10001E0069676874004E4F2E3200486F7273652008
:10002E0052756E204C69676874004E4F2E33006314
:10003E006F756E74646F776E00357365636F6E6483
:10004E00730072656D61696E696E67003473656306
:10005E006F6E647300337365636F6E647300327317
:10006E0065636F6E647300317365636F6E647300E6
:10007E0074696D65206973207570004E4F2E3400C3
:10008E0063686172206D6F76696E677300492061D7
:10009E006D206D6F76696E67006C65667420746F87
:1000AE00207269676874004920616D206D6F7669F2
:1000BE006E6720004E4F2E35007477696E6B6C693B
:1000CE006E67206C69676874004E4F2E3600666C42
:1000DE006F77696E67206C6967687473004E4F2E78
:1000EE0037006D757369633A626164206170706C7C
:1000FE0065004E4F2E382020202054656D703A003A
:10010E0074656D7065726174757265004E4F2E3137
:10011E003300636865636B206B6579626F6172642F
:10012E000048656C6C6F2C00576F726C6421007701
:10013E00656C636F6D6520746F20433531004D69BA
:10014E0063726F636F6E74726F6C6C6572004C7558
:10015E00207969206A69650049443A323031393272
:10016E003333333031340070726573732031207441
:10017E006F20313300746F20636F6E74696E756516
:10018E0000706C6561736520707265737300312049
:10019E00746F2038006E6F7468696E6720686572C0
:1001AE0065007468616E6B73004920616D206E6F1F
:1001BE007420676F6F6420617400646F696E6720CE
:1001CE007468697320514151007468616E6B7320BD
:1001DE00666F72207573696E6700492077696C6C63
:1001EE0020626520626574746572000000001F0055
:1001FE0000000000000E001F000000000E000E00A8
:10020E001F0000001F15151B111F001F04041E0ADE
:10021E00121F00080F120F0A1F02000F090F090FFD
:10022E000911001F11111F11111F000106012501D7
:10023E0049015D018801B801EE020B024A029302E8
:10024E00BA0310037003D40415049305270575062D
:10025E002006E007B8FC8FFCEFFD45FD6CFDB5FDFB
:10026E00F5FE2EFE48FE78FEA3FEB7FEDBFEFBFF7C
:10027E0017060708090A0D0C0A060A0908070607D9
:10028E0008090A09080706070807060507060708EA
:10029E00090A0D0C0A060A090807060708090A09C1
:1002AE00080708090A0C0D0A090A090A0C0D0A09A1
:1002BE000A090A090807050605060708090A060AB3
:1002CE000C0C0D0A090A090A0C0D0A090A0D0E0E6C
:1002DE000E0D0C0A090A09080705060A0C04040487
:1002EE0004020404020204040404040404040204C8
:1002FE0004040404040404040404040404020404B2
:10030E0002020404040404040404020404020202AB
:10031E000204040404020404040404040204040495
:10032E000404040204040404040402040404040483
:10033E000402040404040404020404040404040275
:09034E0004040404040402040484
:0D12BC00010840C180C101010AFF010B00C3
:10069300E4F51375B0FE85B009750EF0E509520E49
:1006A300E50E64F060687F467E0012114F85B00945
:1006B300E50954F0F50E64F06054E50E2450601122
:1006C30024E0601224F060132470701275131080FC
:1006D3000D75130F800875130E800375130DE50E4A
:1006E30064F0602AE50E64F060127F467E0012110A
:1006F3004F85B009E50954F0F50E80E87F467E008A
:1007030012114F85B009E50954F0F50E80D075B08C
:10071300FD85B009750EF0E509520EE50E64F06033
:10072300687F467E0012114F85B009E50954F0F544
:100733000E64F06054E50E2450601124E06012242E
:10074300F060132470701275130C800D75130B80F9
:100753000875130A8003751309E50E64F0602AE532
:100763000E64F060127F467E0012114F85B009E5DA
:100773000954F0F50E80E87F467E0012114F85B0D4
:1007830009E50954F0F50E80D075B0FB85B0097505
:100793000EF0E509520EE50E64F060687F467E00B8
:1007A30012114F85B009E50954F0F50E64F0605459
:1007B300E50E2450601124E0601224F060132470CD
:1007C3007012751308800D75130780087513068062
:1007D30003751305E50E64F0602AE50E64F06012FC
:1007E3007F467E0012114F85B009E50954F0F50EDE
:1007F30080E87F467E0012114F85B009E50954F069
:10080300F50E80D075B0F785B009750EF0E5095285
:100813000EE50E64F060687F467E0012114F85B0CE
:1008230009E50954F0F50E64F06054E50E245060B8
:100833001124E0601224F060132470701275130405
:10084300800D75130380087513028003751301E58A
:100853000E64F0602AE50E64F060127F467E00129B
:10086300114F85B009E50954F0F50E80E87F467E07
:100873000012114F85B009E50954F0F50E80D0AF91
:0208830013223E
:08125D00C286D2878DA07F013B
:0D126500EFD3940040077E32DEFE1F80F3C1
:011272002259
:10120000E4FFFEC285D286D287E5A030E7110FBF8A
:1012100000010ED3EF94E8EE940340ED7F01227FAE
:0112200000CD
:0112210022AA
:10129A00AD07121200C28512125DC2877F010212C7
:0112AA0065DE
:04127300EF2430FF35
:10127700AD07121200D28512125DC2877F010212DA
:011287006501
:0B11BA001211997A0179757BFF7D808E
:1011C500AF0512129A12051CFF600C1212777401FA
:0811D50029F9E43AFA80EE2248
:100BD400AB07AA06AF0512129A7C277D10AF03AEAD
:100BE40002120535EF4E601D1212737C277D10AF83
:100BF40003AE021205357E037FE8CFCDCFCECCCE37
:100C0400120535800F7C037DE8AF03AE0212053573
:100C1400EF4E601D1212737C037DE8AF03AE021227
:100C240005357E007F64CFCDCFCECCCE1205358086
:100C34000F7C007D64AF03AE02120535EF4E602CCD
:100C44001212737C007D64AF03AE021205357E0080
:100C54007F0ACFCDCFCECCCE1205351212737C00D5
:100C64007D0AAF03AE02120535ED80217C007D0ABA
:100C7400AF03AE02120535EF4E60111212737C0001
:100C84007D0AAF03AE02120535ED8001EB2430FF7F
:040C9400121277229F
:10110E00E4FCE4FBEC75F008A425082BFF12129A00
:10111E0075F008ECA42BF582E435F0F583E5822416
:10112E00F9F582E5833401F583E493FF1212770B10
:07113E00BB08D10CBC08CB7B
:011145002287
:031196007580FF62
:101199007F3812129A7F0C12129A7F0612129A7FC6
:1011A9000112129A7F0212129A12110E7F800212F4
:0111B9009A9B
:0712880012128FD2917F01C9
:0B128F00AE071FEE6004000080F62296
:10116F00D2D730D721C2917FF012128F7FF0121297
:10117F008FD2917F3C12128FA2917FF012128F7F2C
:07118F00B412128F80DC2274
:10122200E4FDFCEDC313FDC2917F011212883091DF
:0F123200034305807F3C12128F0CBC08E6AF050A
:01124100228A
:02124200AD07F6
:10124400E4FCC2917F0112128FEDC313FD92917FD2
:081254003C1212880CBC08EAF0
:01125C00226F
:091146007DC51211C57FE87E038E
:10114F00E4FDFCC3ED9FEC9E5015E4FBFA0BBB00D6
:0F115F00010ABA03F8BBA2F50DBD00010C80E434
:01116E00225E
:1010CB00D280C281D282C283D284C285D286C287A9
:1010DB00AF18AE171210FDC280D281C282D283C26A
:1010EB0084D285C286D287C3742C9518FF74019560
:0210FB0017FEDE
:1010FD00D3EF9400EE94004007EF1F70F31E80F0C5
:01110D0022BF
:100D4F001211967A00790E1211C17A0079137DC0B3
:100D5F001211C57D017C00E4FBFAE4F515F516D2FE
:100D6F0080AF03AE021210FDC280C3742C9BFF74C0
:100D7F00019AFE1210FD0516E51670020515C394B3
:100D8F000AE515940040D80BBB00010ABA01CBBB92
:100D9F002DC87A017B2CE4F515F516D280AF03AE82
:100DAF00021210FDC280C3742C9BFF74019AFE12B5
:100DBF0010FD0516E51670020515C3940AE5159486
:100DCF000040D8EB1B70011AEB4A70CA0DBD000131
:0A0DDF000CED64044C70807580FF79
:010DE90022E7
:101010007515FEE4F516F5171211997BFF7A007924
:10102000237D801211C57A0079287DC01211C590E8
:101030000001E51770248515807FF47E0112114FA1
:10104000AF157801EF08800123D8FDF5150516E5E9
:101050001664077022751701801D8515807FF47E48
:101060000112114FAF157801EF08800103D8FDF58B
:1010700015D51603E4F517A3E5826416458370B20F
:01108000224D
:100F04001211967BFF7A0079387D801211C57A0020
:100F1400793D7DC01211487580FF1211997BFF7ACB
:100F240000793D7D801211C57A0079471211467B04
:100F3400FF7A0079507D801211C57A00795A121116
:100F4400467BFF7A0079507D801211C57A0079635F
:100F54001211467BFF7A0079507D801211C57A0008
:100F6400796C1211467BFF7A0079507D801211C58D
:100F74007A0079751211461211997BFF7A00797EF5
:0C0F84007D801211C57FE87E0302114F32
:100C9800E4F515F516F517F5187580FF1211997B0F
:100CA800FF7A0079897D801211C57A00798E7DC01E
:100CB8001211487580FF1211997BFF7A00799B7D8C
:100CC800801211C57A0079A77DC31211C5E4F51900
:100CD800F51AE518451770310516E5167002051561
:100CE8007FF47E0112114F7F1812129A7BFF7A004F
:100CF80079B5E5162480FD1211C5E516640545157C
:100D08007033F517751801802CE516151670021545
:100D1800157FF47E0112114F7F1C12129A7BFF7A05
:100D28000079B5E5162480FD1211C5E51645157044
:100D380004F517F518051AE51A70020519D3942059
:060D4800E5199400408C47
:010D4E002282
:100DEA007580FF1211997BFF7A0079C27D801211FA
:100DFA00C57A0079C77DC01211C57D017C00E4F572
:100E0A0017F518E4F515F5161210CB0516E5167048
:100E1A00020515C3940AE515940040EC0518E51877
:100E2A0070020517D3942CE517940140D60DBD0026
:100E3A00010CED64044C70C675170175182CE4F5A5
:100E4A0015F5161210CB0516E51670020515C39492
:100E5A000AE515940040ECE518151870021517D329
:0D0E6A00E5189400E517940050D47580FF42
:010E77002258
:100A1E007580FF1211997BFF7A0079D77D801211B4
:100A2E00C57A0079DC7DC01211C590000185168053
:100A3E007FF47E0112114F7515007516FE85168016
:100A4E0012114F7515007516FC85168012114F7513
:100A5E0015007516F885168012114F75150075164E
:100A6E00F085168012114F7515007516E0851680EB
:100A7E0012114F7515007516C085168012114F751F
:100A8E00150075168085168012114FE4F515F516B2
:100A9E0085168012114F75150075168085168012F9
:100AAE00114F7515007516C085168012114F7515EC
:100ABE00007516E085168012114F7515007516F02B
:100ACE0085168012114F7515007516F88516801251
:100ADE00114F7515007516FC85168012114F751580
:100AEE00007516FEA3E582640345836003020A3B8C
:030AFE007580FF01
:010B010022D1
:101081001211997BFF7A0079EB7D801211C57A00EC
:1010910079F07DC01211C5D2AF758901850A8C85A1
:1010A1000B8AD2A9D28C7515007516017F37120BE8
:1010B100027F407E9C1210FD0516E5167002051593
:0910C100D39401E515940040E30D
:0110CA002203
:020B02008F174B
:100B0400E4F51AF51BFDFCFFFE7580FFF518E518EA
:100B1400C3946C4003020BD33001FDC201E51B45B5
:100B24001A6003020BA7E51890027F9314F51925A8
:100B3400E02463F582E43402F583E493FC740193C6
:100B4400FDECF50A8D0BE5189002EB93FF7E00ADEA
:100B5400177C00120666C004A905AA06AB07E519AE
:100B640025E02439F582E43402F583E493FE74012C
:100B740093FF7C007DF0120666D0001205C6AC0619
:100B8400AD07ED7802CEC313CE13D8F9FFC3ED9FA2
:100B9400FFEC9EFED200051BE51B7002051AB28015
:100BA400020B12E51BB5050FE51AB5040AE4F51AA4
:100BB400F51B0518020B12051BE51B7002051A6FC5
:0F0BC4007003E51A6E6003020B12C200020B12DF
:010BD30022FF
:03000B000212AB33
:1012AB00850A8C850B8AD201300003B29432D2941A
:0112BB003200
:100F90001211997515007516017BFF7A0179007D94
:100FA000801211C512116F7FCC1212427F441212AF
:100FB0004212114B12116F7FCC1212427FBE1212DD
:100FC000421212227511008F12121222750F008F19
:100FD00010E5104511FCE512FDE4120462E4FBFA91
:100FE0007980783D12035712049B8E0C8F0D7D8DF6
:100FF000120BD47BFF7A01790E7DC01211480516C1
:0F100000E51670020515D39402E5159400408A99
:01100F0022BE
:1011DD001211997BFF7A01791A7D801211C57A015E
:1011ED0079207DC0121148C280120693EF60FAB2C9
:0311FD008080F6F9
:100885001211997BFF7A01792F7D801211C57A01AA
:1008950079367DC51211C57FD07E0712114F121111
:1008A500997BFF7A01793D7D801211C57A01794CDA
:1008B5007DC51211C57FD07E0712114F1211997B8C
:1008C500FF7A01795C7D801211C57A0179667DC058
:1008D5001211C57FD07E0712114F1211BA7A017914
:1008E500837DC01211C51206938F14E514B4010F50
:1008F500120D4F1211BA7A0179837DC01211C5E527
:1009050014B4020F1210101211BA7A0179837DC046
:100915001211C5E5146403701D120F041211997BA1
:10092500FF7A0079C27D801211C51211BA7A017958
:10093500837DC01211C5E514B4040F120C98121171
:10094500BA7A0179837DC01211C5E514B4050F1279
:100955000DEA1211BA7A0179837DC01211C5E51429
:10096500B4060F120A1E1211BA7A0179837DC012DC
:1009750011C5E514B4070F1210811211BA7A017965
:10098500837DC01211C5E514B4080F120F90121122
:10099500BA7A0179837DC01211C5E514B40917121D
:1009A50011997BFF7A01798F7D801211C57A0179C2
:1009B5009C7DC01211C5E514B40A171211997BFF6D
:1009C5007A0179A37D801211C57A0179B07DC012B3
:1009D50011C5E514B40B171211997BFF7A0179B78C
:1009E5007D801211C57A0179C87DC01211C5E51443
:1009F500B40C171211997BFF7A0179D77D801211FA
:100A0500C57A0179E87DC01211C5E514640D60034E
:090A15000208EB1211DD0208EBEE
:10035700EC4D6011E8497017ED33EC3304600DE4A0
:10036700FCFFFEFD22E933E8330470F802050712AB
:1003770004D258046009E4CC2481500628500902AD
:10038700051128400302050EC0E0EB4A7044B9800E
:1003970006D0E0FB0204FDEF4E701CBD8008EBFFAA
:1003A700EAFEE9FD80EBE98DF0A4FEE5F0020440EA
:1003B700E9CDF9EAFEEBFFEF89F0A4FCE5F0CE8981
:1003C700F0A42EFFE435F0CD89F0A42DFEE435F03E
:1003D7008067EF4E7005BD80D780C3EF8BF0A4AC6C
:1003E700F0EE8BF0A42CFCE435F0F8EF8AF0A42CA7
:1003F700E5F038FCE433CB8DF0A42CFCE5F03BF8BA
:10040700EE8AF0A42CFCE5F038F8E433CF89F0A4A9
:100417002CFCE5F038CF3400CE89F0A42FFFE5F0AF
:100427003EFEE433C98DF0A42EFEE5F039CD8AF007
:10043700A42FFFE5F03EFEE43DFD33D0E0FB50077F
:100447000BBB000F020511EC2CFCEF33FFEE33FE64
:06045700ED33FD0204E993
:10045D0075F020800E75F010800575F0087D007E1A
:10046D00007F003392D530D503120658EC3340107F
:10047D00EF33FFEE33FEED33FDEC33FCD5F0ED2223
:0E048D00E5F0247EA2D513CC92E7CDCEFF225F
:10049B00EDD2E7CD33EC3392D524814006E4FFFE59
:1004AB00FDFC22FCE4CFCECDCC24E0501174FF80B8
:1004BB00EDC3CC13CCCD13CDCE13CECF13CF047055
:0704CB00F030D5DE020658F7
:1004D200E9D2E7C933E833F892D5EDD2E7CD33EC70
:0704E20033FC5002B2D522E9
:1004E900EC30E7100FBF000C0EBE00080DBD000474
:1004F9000BEB6014A2D5EB13FCED92E7FD2274FF20
:10050900FCFDFEFF22E480F8A2D574FF13FC7D8078
:03051900E480EF8C
:100E8400020885E493A3F8E493A34003F68001F2F7
:100E940008DFF48029E493A3F85407240CC8C3336F
:100EA400C4540F4420C8834004F456800146F6DF3E
:100EB400E4800B01020408102040809012BCE47E00
:100EC400019360BCA3FF543F30E509541FFEE49333
:100ED400A360010ECF54C025E060A840B8E493A3FA
:100EE400FAE493A3F8E493A3C8C582C8CAC583CA25
:100EF400F0A3C8C582C8CAC583CADFE9DEE780BEDD
:0112C9000024
:10051C00BB010689828A83E0225002E722BBFE02DD
:09052C00E32289828A83E4932210
:10053500BC000BBE0029EF8DF084FFADF022E4CCAA
:10054500F875F008EF2FFFEE33FEEC33FCEE9DEC73
:10055500984005FCEE9DFE0FD5F0E9E4CEFD22EDB9
:10056500F8F5F0EE8420D21CFEADF075F008EF2F03
:10057500FFED33FD4007985006D5F0F222C398FDF4
:050585000FD5F0EA2291
:10058A0075F008758200EF2FFFEE33FECD33CDCC28
:10059A0033CCC58233C5829BED9AEC99E5829840AB
:1005AA000CF582EE9BFEED9AFDEC99FC0FD5F0D688
:1005BA00E4CEFBE4CDFAE4CCF9A88222B800C1B9B2
:1005CA000059BA002DEC8BF084CFCECDFCE5F0CBF0
:1005DA00F97818EF2FFFEE33FEED33FDEC33FCEB29
:1005EA0033FB10D703994004EB99FB0FD8E5E4F9E4
:1005FA00FA227818EF2FFFEE33FEED33FDEC33FCD1
:10060A00C933C910D7059BE99A4007EC9BFCE99AC4
:10061A00F90FD8E0E4C9FAE4CCFB2275F010EF2F09
:10062A00FFEE33FEED33FDCC33CCC833C810D70709
:10063A009BEC9AE899400AED9BFDEC9AFCE899F844
:0E064A000FD5F0DAE4CDFBE4CCFAE4C8F922D7
:0E065800C3E49FFFE49EFEE49DFDE49CFC22B3
:10066600EC8EF0A4CCC5F0CCCDF8EFA4CEC5F02D21
:10067600FDE43CFCE8A42EC8C5F03DFDE43CFCEFDF
:0D068600A4FFE5F028FEE43DFDE43CFC226D
:00000001FF
